{
  "_format": "hh-sol-artifact-1",
  "contractName": "BadgeToken",
  "sourceName": "contracts/BadgeToken.sol",
  "abi": [
    {
      "inputs": [
        {
          "internalType": "string",
          "name": "_name",
          "type": "string"
        },
        {
          "internalType": "string",
          "name": "_symbol",
          "type": "string"
        }
      ],
      "stateMutability": "nonpayable",
      "type": "constructor"
    },
    {
      "anonymous": false,
      "inputs": [
        {
          "indexed": true,
          "internalType": "address",
          "name": "owner",
          "type": "address"
        },
        {
          "indexed": true,
          "internalType": "address",
          "name": "approved",
          "type": "address"
        },
        {
          "indexed": true,
          "internalType": "uint256",
          "name": "tokenId",
          "type": "uint256"
        }
      ],
      "name": "Approval",
      "type": "event"
    },
    {
      "anonymous": false,
      "inputs": [
        {
          "indexed": true,
          "internalType": "address",
          "name": "owner",
          "type": "address"
        },
        {
          "indexed": true,
          "internalType": "address",
          "name": "operator",
          "type": "address"
        },
        {
          "indexed": false,
          "internalType": "bool",
          "name": "approved",
          "type": "bool"
        }
      ],
      "name": "ApprovalForAll",
      "type": "event"
    },
    {
      "anonymous": false,
      "inputs": [
        {
          "indexed": true,
          "internalType": "address",
          "name": "from",
          "type": "address"
        },
        {
          "indexed": true,
          "internalType": "address",
          "name": "to",
          "type": "address"
        },
        {
          "indexed": true,
          "internalType": "uint256",
          "name": "tokenId",
          "type": "uint256"
        }
      ],
      "name": "Transfer",
      "type": "event"
    },
    {
      "inputs": [
        {
          "internalType": "address",
          "name": "to",
          "type": "address"
        },
        {
          "internalType": "uint256",
          "name": "tokenId",
          "type": "uint256"
        }
      ],
      "name": "approve",
      "outputs": [],
      "stateMutability": "nonpayable",
      "type": "function"
    },
    {
      "inputs": [
        {
          "internalType": "address",
          "name": "owner",
          "type": "address"
        }
      ],
      "name": "balanceOf",
      "outputs": [
        {
          "internalType": "uint256",
          "name": "",
          "type": "uint256"
        }
      ],
      "stateMutability": "view",
      "type": "function"
    },
    {
      "inputs": [
        {
          "internalType": "uint256",
          "name": "tokenId",
          "type": "uint256"
        }
      ],
      "name": "getApproved",
      "outputs": [
        {
          "internalType": "address",
          "name": "",
          "type": "address"
        }
      ],
      "stateMutability": "view",
      "type": "function"
    },
    {
      "inputs": [
        {
          "internalType": "address",
          "name": "owner",
          "type": "address"
        },
        {
          "internalType": "address",
          "name": "operator",
          "type": "address"
        }
      ],
      "name": "isApprovedForAll",
      "outputs": [
        {
          "internalType": "bool",
          "name": "",
          "type": "bool"
        }
      ],
      "stateMutability": "view",
      "type": "function"
    },
    {
      "inputs": [],
      "name": "marketAddress",
      "outputs": [
        {
          "internalType": "address",
          "name": "",
          "type": "address"
        }
      ],
      "stateMutability": "view",
      "type": "function"
    },
    {
      "inputs": [
        {
          "internalType": "address",
          "name": "_to",
          "type": "address"
        }
      ],
      "name": "mintTo",
      "outputs": [],
      "stateMutability": "nonpayable",
      "type": "function"
    },
    {
      "inputs": [],
      "name": "name",
      "outputs": [
        {
          "internalType": "string",
          "name": "",
          "type": "string"
        }
      ],
      "stateMutability": "view",
      "type": "function"
    },
    {
      "inputs": [
        {
          "internalType": "uint256",
          "name": "tokenId",
          "type": "uint256"
        }
      ],
      "name": "ownerOf",
      "outputs": [
        {
          "internalType": "address",
          "name": "",
          "type": "address"
        }
      ],
      "stateMutability": "view",
      "type": "function"
    },
    {
      "inputs": [
        {
          "internalType": "address",
          "name": "from",
          "type": "address"
        },
        {
          "internalType": "address",
          "name": "to",
          "type": "address"
        },
        {
          "internalType": "uint256",
          "name": "tokenId",
          "type": "uint256"
        }
      ],
      "name": "safeTransferFrom",
      "outputs": [],
      "stateMutability": "nonpayable",
      "type": "function"
    },
    {
      "inputs": [
        {
          "internalType": "address",
          "name": "from",
          "type": "address"
        },
        {
          "internalType": "address",
          "name": "to",
          "type": "address"
        },
        {
          "internalType": "uint256",
          "name": "tokenId",
          "type": "uint256"
        },
        {
          "internalType": "bytes",
          "name": "_data",
          "type": "bytes"
        }
      ],
      "name": "safeTransferFrom",
      "outputs": [],
      "stateMutability": "nonpayable",
      "type": "function"
    },
    {
      "inputs": [
        {
          "internalType": "address",
          "name": "operator",
          "type": "address"
        },
        {
          "internalType": "bool",
          "name": "approved",
          "type": "bool"
        }
      ],
      "name": "setApprovalForAll",
      "outputs": [],
      "stateMutability": "nonpayable",
      "type": "function"
    },
    {
      "inputs": [
        {
          "internalType": "bytes4",
          "name": "interfaceId",
          "type": "bytes4"
        }
      ],
      "name": "supportsInterface",
      "outputs": [
        {
          "internalType": "bool",
          "name": "",
          "type": "bool"
        }
      ],
      "stateMutability": "view",
      "type": "function"
    },
    {
      "inputs": [],
      "name": "symbol",
      "outputs": [
        {
          "internalType": "string",
          "name": "",
          "type": "string"
        }
      ],
      "stateMutability": "view",
      "type": "function"
    },
    {
      "inputs": [
        {
          "internalType": "uint256",
          "name": "tokenId",
          "type": "uint256"
        }
      ],
      "name": "tokenURI",
      "outputs": [
        {
          "internalType": "string",
          "name": "",
          "type": "string"
        }
      ],
      "stateMutability": "pure",
      "type": "function"
    },
    {
      "inputs": [
        {
          "internalType": "address",
          "name": "from",
          "type": "address"
        },
        {
          "internalType": "address",
          "name": "to",
          "type": "address"
        },
        {
          "internalType": "uint256",
          "name": "tokenId",
          "type": "uint256"
        }
      ],
      "name": "transferFrom",
      "outputs": [],
      "stateMutability": "nonpayable",
      "type": "function"
    }
  ],
  "bytecode": "0x608060405260006006553480156200001657600080fd5b506040516200342f3803806200342f83398181016040528101906200003c9190620003cb565b81818160009080519060200190620000569291906200017e565b5080600190805190602001906200006f9291906200017e565b505050620000aa600760009054906101000a900473ffffffffffffffffffffffffffffffffffffffff16620000b260201b62000bce1760201c565b505062000517565b6200015281604051602401620000c9919062000495565b6040516020818303038152906040527f2c2ecbc2000000000000000000000000000000000000000000000000000000007bffffffffffffffffffffffffffffffffffffffffffffffffffffffff19166020820180517bffffffffffffffffffffffffffffffffffffffffffffffffffffffff83818316178352505050506200015560201b60201c565b50565b60008151905060006a636f6e736f6c652e6c6f679050602083016000808483855afa5050505050565b8280546200018c90620004e1565b90600052602060002090601f016020900481019282620001b05760008555620001fc565b82601f10620001cb57805160ff1916838001178555620001fc565b82800160010185558215620001fc579182015b82811115620001fb578251825591602001919060010190620001de565b5b5090506200020b91906200020f565b5090565b5b808211156200022a57600081600090555060010162000210565b5090565b6000604051905090565b600080fd5b600080fd5b600080fd5b600080fd5b6000601f19601f8301169050919050565b7f4e487b7100000000000000000000000000000000000000000000000000000000600052604160045260246000fd5b62000297826200024c565b810181811067ffffffffffffffff82111715620002b957620002b86200025d565b5b80604052505050565b6000620002ce6200022e565b9050620002dc82826200028c565b919050565b600067ffffffffffffffff821115620002ff57620002fe6200025d565b5b6200030a826200024c565b9050602081019050919050565b60005b83811015620003375780820151818401526020810190506200031a565b8381111562000347576000848401525b50505050565b6000620003646200035e84620002e1565b620002c2565b90508281526020810184848401111562000383576200038262000247565b5b6200039084828562000317565b509392505050565b600082601f830112620003b057620003af62000242565b5b8151620003c28482602086016200034d565b91505092915050565b60008060408385031215620003e557620003e462000238565b5b600083015167ffffffffffffffff8111156200040657620004056200023d565b5b620004148582860162000398565b925050602083015167ffffffffffffffff8111156200043857620004376200023d565b5b620004468582860162000398565b9150509250929050565b600073ffffffffffffffffffffffffffffffffffffffff82169050919050565b60006200047d8262000450565b9050919050565b6200048f8162000470565b82525050565b6000602082019050620004ac600083018462000484565b92915050565b7f4e487b7100000000000000000000000000000000000000000000000000000000600052602260045260246000fd5b60006002820490506001821680620004fa57607f821691505b60208210811415620005115762000510620004b2565b5b50919050565b612f0880620005276000396000f3fe608060405234801561001057600080fd5b50600436106100f55760003560e01c806370a0823111610097578063a22cb46511610066578063a22cb46514610284578063b88d4fde146102a0578063c87b56dd146102bc578063e985e9c5146102ec576100f5565b806370a08231146101fc578063755edd171461022c578063956236411461024857806395d89b4114610266576100f5565b8063095ea7b3116100d3578063095ea7b31461017857806323b872dd1461019457806342842e0e146101b05780636352211e146101cc576100f5565b806301ffc9a7146100fa57806306fdde031461012a578063081812fc14610148575b600080fd5b610114600480360381019061010f9190611ae9565b61031c565b6040516101219190611b31565b60405180910390f35b6101326103fe565b60405161013f9190611be5565b60405180910390f35b610162600480360381019061015d9190611c3d565b610490565b60405161016f9190611cab565b60405180910390f35b610192600480360381019061018d9190611cf2565b610515565b005b6101ae60048036038101906101a99190611d32565b61062d565b005b6101ca60048036038101906101c59190611d32565b61068d565b005b6101e660048036038101906101e19190611c3d565b6106ad565b6040516101f39190611cab565b60405180910390f35b61021660048036038101906102119190611d85565b61075f565b6040516102239190611dc1565b60405180910390f35b61024660048036038101906102419190611d85565b610817565b005b610250610878565b60405161025d9190611cab565b60405180910390f35b61026e61089e565b60405161027b9190611be5565b60405180910390f35b61029e60048036038101906102999190611e08565b610930565b005b6102ba60048036038101906102b59190611f7d565b610946565b005b6102d660048036038101906102d19190611c3d565b6109a8565b6040516102e39190611be5565b60405180910390f35b61030660048036038101906103019190612000565b610b3a565b6040516103139190611b31565b60405180910390f35b60007f80ac58cd000000000000000000000000000000000000000000000000000000007bffffffffffffffffffffffffffffffffffffffffffffffffffffffff1916827bffffffffffffffffffffffffffffffffffffffffffffffffffffffff191614806103e757507f5b5e139f000000000000000000000000000000000000000000000000000000007bffffffffffffffffffffffffffffffffffffffffffffffffffffffff1916827bffffffffffffffffffffffffffffffffffffffffffffffffffffffff1916145b806103f757506103f682610c67565b5b9050919050565b60606000805461040d9061206f565b80601f01602080910402602001604051908101604052809291908181526020018280546104399061206f565b80156104865780601f1061045b57610100808354040283529160200191610486565b820191906000526020600020905b81548152906001019060200180831161046957829003601f168201915b5050505050905090565b600061049b82610cd1565b6104da576040517f08c379a00000000000000000000000000000000000000000000000000000000081526004016104d190612113565b60405180910390fd5b6004600083815260200190815260200160002060009054906101000a900473ffffffffffffffffffffffffffffffffffffffff169050919050565b6000610520826106ad565b90508073ffffffffffffffffffffffffffffffffffffffff168373ffffffffffffffffffffffffffffffffffffffff161415610591576040517f08c379a0000000000000000000000000000000000000000000000000000000008152600401610588906121a5565b60405180910390fd5b8073ffffffffffffffffffffffffffffffffffffffff166105b0610d3d565b73ffffffffffffffffffffffffffffffffffffffff1614806105df57506105de816105d9610d3d565b610b3a565b5b61061e576040517f08c379a000000000000000000000000000000000000000000000000000000000815260040161061590612237565b60405180910390fd5b6106288383610d45565b505050565b61063e610638610d3d565b82610dfe565b61067d576040517f08c379a0000000000000000000000000000000000000000000000000000000008152600401610674906122c9565b60405180910390fd5b610688838383610edc565b505050565b6106a883838360405180602001604052806000815250610946565b505050565b6000806002600084815260200190815260200160002060009054906101000a900473ffffffffffffffffffffffffffffffffffffffff169050600073ffffffffffffffffffffffffffffffffffffffff168173ffffffffffffffffffffffffffffffffffffffff161415610756576040517f08c379a000000000000000000000000000000000000000000000000000000000815260040161074d9061235b565b60405180910390fd5b80915050919050565b60008073ffffffffffffffffffffffffffffffffffffffff168273ffffffffffffffffffffffffffffffffffffffff1614156107d0576040517f08c379a00000000000000000000000000000000000000000000000000000000081526004016107c7906123ed565b60405180910390fd5b600360008373ffffffffffffffffffffffffffffffffffffffff1673ffffffffffffffffffffffffffffffffffffffff168152602001908152602001600020549050919050565b6000610821611143565b90506108626040518060400160405280600b81526020017f6e6577546f6b656e49643a00000000000000000000000000000000000000000081525082611159565b61086c82826111f5565b6108746113cf565b5050565b600760009054906101000a900473ffffffffffffffffffffffffffffffffffffffff1681565b6060600180546108ad9061206f565b80601f01602080910402602001604051908101604052809291908181526020018280546108d99061206f565b80156109265780601f106108fb57610100808354040283529160200191610926565b820191906000526020600020905b81548152906001019060200180831161090957829003601f168201915b5050505050905090565b61094261093b610d3d565b83836113e9565b5050565b610957610951610d3d565b83610dfe565b610996576040517f08c379a000000000000000000000000000000000000000000000000000000000815260040161098d906122c9565b60405180910390fd5b6109a284848484611556565b50505050565b60606109b2611a55565b60405180610120016040528060fd8152602001612dd660fd9139816000601181106109e0576109df61240d565b5b60200201819052506109f1836115b2565b81600160118110610a0557610a0461240d565b5b60200201819052506040518060400160405280600d81526020017f3c2f746578743e3c2f7376673e0000000000000000000000000000000000000081525081600260118110610a5757610a5661240d565b5b6020020181905250600081600060118110610a7557610a7461240d565b5b602002015182600160118110610a8e57610a8d61240d565b5b602002015183600260118110610aa757610aa661240d565b5b6020020151604051602001610abe93929190612478565b60405160208183030381529060405290506000610b0b610add866115b2565b610ae684611713565b604051602001610af792919061264b565b604051602081830303815290604052611713565b905080604051602001610b1e91906126e7565b6040516020818303038152906040529150819350505050919050565b6000600560008473ffffffffffffffffffffffffffffffffffffffff1673ffffffffffffffffffffffffffffffffffffffff16815260200190815260200160002060008373ffffffffffffffffffffffffffffffffffffffff1673ffffffffffffffffffffffffffffffffffffffff16815260200190815260200160002060009054906101000a900460ff16905092915050565b610c6481604051602401610be29190611cab565b6040516020818303038152906040527f2c2ecbc2000000000000000000000000000000000000000000000000000000007bffffffffffffffffffffffffffffffffffffffffffffffffffffffff19166020820180517bffffffffffffffffffffffffffffffffffffffffffffffffffffffff8381831617835250505050611877565b50565b60007f01ffc9a7000000000000000000000000000000000000000000000000000000007bffffffffffffffffffffffffffffffffffffffffffffffffffffffff1916827bffffffffffffffffffffffffffffffffffffffffffffffffffffffff1916149050919050565b60008073ffffffffffffffffffffffffffffffffffffffff166002600084815260200190815260200160002060009054906101000a900473ffffffffffffffffffffffffffffffffffffffff1673ffffffffffffffffffffffffffffffffffffffff1614159050919050565b600033905090565b816004600083815260200190815260200160002060006101000a81548173ffffffffffffffffffffffffffffffffffffffff021916908373ffffffffffffffffffffffffffffffffffffffff160217905550808273ffffffffffffffffffffffffffffffffffffffff16610db8836106ad565b73ffffffffffffffffffffffffffffffffffffffff167f8c5be1e5ebec7d5bd14f71427d1e84f3dd0314c0f7b2291e5b200ac8c7c3b92560405160405180910390a45050565b6000610e0982610cd1565b610e48576040517f08c379a0000000000000000000000000000000000000000000000000000000008152600401610e3f9061277b565b60405180910390fd5b6000610e53836106ad565b90508073ffffffffffffffffffffffffffffffffffffffff168473ffffffffffffffffffffffffffffffffffffffff161480610ec257508373ffffffffffffffffffffffffffffffffffffffff16610eaa84610490565b73ffffffffffffffffffffffffffffffffffffffff16145b80610ed35750610ed28185610b3a565b5b91505092915050565b8273ffffffffffffffffffffffffffffffffffffffff16610efc826106ad565b73ffffffffffffffffffffffffffffffffffffffff1614610f52576040517f08c379a0000000000000000000000000000000000000000000000000000000008152600401610f499061280d565b60405180910390fd5b600073ffffffffffffffffffffffffffffffffffffffff168273ffffffffffffffffffffffffffffffffffffffff161415610fc2576040517f08c379a0000000000000000000000000000000000000000000000000000000008152600401610fb99061289f565b60405180910390fd5b610fcd8383836118a0565b610fd8600082610d45565b6001600360008573ffffffffffffffffffffffffffffffffffffffff1673ffffffffffffffffffffffffffffffffffffffff168152602001908152602001600020600082825461102891906128ee565b925050819055506001600360008473ffffffffffffffffffffffffffffffffffffffff1673ffffffffffffffffffffffffffffffffffffffff168152602001908152602001600020600082825461107f9190612922565b92505081905550816002600083815260200190815260200160002060006101000a81548173ffffffffffffffffffffffffffffffffffffffff021916908373ffffffffffffffffffffffffffffffffffffffff160217905550808273ffffffffffffffffffffffffffffffffffffffff168473ffffffffffffffffffffffffffffffffffffffff167fddf252ad1be2c89b69c2b068fc378daa952ba7f163c4a11628f55a4df523b3ef60405160405180910390a461113e8383836118a5565b505050565b600060016006546111549190612922565b905090565b6111f1828260405160240161116f929190612978565b6040516020818303038152906040527f9710a9d0000000000000000000000000000000000000000000000000000000007bffffffffffffffffffffffffffffffffffffffffffffffffffffffff19166020820180517bffffffffffffffffffffffffffffffffffffffffffffffffffffffff8381831617835250505050611877565b5050565b600073ffffffffffffffffffffffffffffffffffffffff168273ffffffffffffffffffffffffffffffffffffffff161415611265576040517f08c379a000000000000000000000000000000000000000000000000000000000815260040161125c906129f4565b60405180910390fd5b61126e81610cd1565b156112ae576040517f08c379a00000000000000000000000000000000000000000000000000000000081526004016112a590612a60565b60405180910390fd5b6112ba600083836118a0565b6001600360008473ffffffffffffffffffffffffffffffffffffffff1673ffffffffffffffffffffffffffffffffffffffff168152602001908152602001600020600082825461130a9190612922565b92505081905550816002600083815260200190815260200160002060006101000a81548173ffffffffffffffffffffffffffffffffffffffff021916908373ffffffffffffffffffffffffffffffffffffffff160217905550808273ffffffffffffffffffffffffffffffffffffffff16600073ffffffffffffffffffffffffffffffffffffffff167fddf252ad1be2c89b69c2b068fc378daa952ba7f163c4a11628f55a4df523b3ef60405160405180910390a46113cb600083836118a5565b5050565b600660008154809291906113e290612a80565b9190505550565b8173ffffffffffffffffffffffffffffffffffffffff168373ffffffffffffffffffffffffffffffffffffffff161415611458576040517f08c379a000000000000000000000000000000000000000000000000000000000815260040161144f90612b15565b60405180910390fd5b80600560008573ffffffffffffffffffffffffffffffffffffffff1673ffffffffffffffffffffffffffffffffffffffff16815260200190815260200160002060008473ffffffffffffffffffffffffffffffffffffffff1673ffffffffffffffffffffffffffffffffffffffff16815260200190815260200160002060006101000a81548160ff0219169083151502179055508173ffffffffffffffffffffffffffffffffffffffff168373ffffffffffffffffffffffffffffffffffffffff167f17307eab39ab6107e8899845ad3d59bd9653f200f220920489ca2b5937696c31836040516115499190611b31565b60405180910390a3505050565b611561848484610edc565b61156d848484846118aa565b6115ac576040517f08c379a00000000000000000000000000000000000000000000000000000000081526004016115a390612ba7565b60405180910390fd5b50505050565b606060008214156115fa576040518060400160405280600181526020017f3000000000000000000000000000000000000000000000000000000000000000815250905061170e565b600082905060005b6000821461162c57808061161590612a80565b915050600a826116259190612bf6565b9150611602565b60008167ffffffffffffffff81111561164857611647611e52565b5b6040519080825280601f01601f19166020018201604052801561167a5781602001600182028036833780820191505090505b5090505b600085146117075760018261169391906128ee565b9150600a856116a29190612c27565b60306116ae9190612922565b60f81b8183815181106116c4576116c361240d565b5b60200101907effffffffffffffffffffffffffffffffffffffffffffffffffffffffffffff1916908160001a905350600a856117009190612bf6565b945061167e565b8093505050505b919050565b606060008251141561173657604051806020016040528060008152509050611872565b6000604051806060016040528060408152602001612d9660409139905060006003600285516117659190612922565b61176f9190612bf6565b600461177b9190612c58565b67ffffffffffffffff81111561179457611793611e52565b5b6040519080825280601f01601f1916602001820160405280156117c65781602001600182028036833780820191505090505b509050600182016020820185865187015b80821015611832576003820191508151603f8160121c168501518453600184019350603f81600c1c168501518453600184019350603f8160061c168501518453600184019350603f81168501518453600184019350506117d7565b505060038651066001811461184e576002811461186157611869565b603d6001830353603d6002830353611869565b603d60018303535b50505080925050505b919050565b60008151905060006a636f6e736f6c652e6c6f679050602083016000808483855afa5050505050565b505050565b505050565b60006118cb8473ffffffffffffffffffffffffffffffffffffffff16611a32565b15611a25578373ffffffffffffffffffffffffffffffffffffffff1663150b7a026118f4610d3d565b8786866040518563ffffffff1660e01b81526004016119169493929190612d07565b6020604051808303816000875af192505050801561195257506040513d601f19601f8201168201806040525081019061194f9190612d68565b60015b6119d5573d8060008114611982576040519150601f19603f3d011682016040523d82523d6000602084013e611987565b606091505b506000815114156119cd576040517f08c379a00000000000000000000000000000000000000000000000000000000081526004016119c490612ba7565b60405180910390fd5b805181602001fd5b63150b7a0260e01b7bffffffffffffffffffffffffffffffffffffffffffffffffffffffff1916817bffffffffffffffffffffffffffffffffffffffffffffffffffffffff191614915050611a2a565b600190505b949350505050565b6000808273ffffffffffffffffffffffffffffffffffffffff163b119050919050565b6040518061022001604052806011905b6060815260200190600190039081611a655790505090565b6000604051905090565b600080fd5b600080fd5b60007fffffffff0000000000000000000000000000000000000000000000000000000082169050919050565b611ac681611a91565b8114611ad157600080fd5b50565b600081359050611ae381611abd565b92915050565b600060208284031215611aff57611afe611a87565b5b6000611b0d84828501611ad4565b91505092915050565b60008115159050919050565b611b2b81611b16565b82525050565b6000602082019050611b466000830184611b22565b92915050565b600081519050919050565b600082825260208201905092915050565b60005b83811015611b86578082015181840152602081019050611b6b565b83811115611b95576000848401525b50505050565b6000601f19601f8301169050919050565b6000611bb782611b4c565b611bc18185611b57565b9350611bd1818560208601611b68565b611bda81611b9b565b840191505092915050565b60006020820190508181036000830152611bff8184611bac565b905092915050565b6000819050919050565b611c1a81611c07565b8114611c2557600080fd5b50565b600081359050611c3781611c11565b92915050565b600060208284031215611c5357611c52611a87565b5b6000611c6184828501611c28565b91505092915050565b600073ffffffffffffffffffffffffffffffffffffffff82169050919050565b6000611c9582611c6a565b9050919050565b611ca581611c8a565b82525050565b6000602082019050611cc06000830184611c9c565b92915050565b611ccf81611c8a565b8114611cda57600080fd5b50565b600081359050611cec81611cc6565b92915050565b60008060408385031215611d0957611d08611a87565b5b6000611d1785828601611cdd565b9250506020611d2885828601611c28565b9150509250929050565b600080600060608486031215611d4b57611d4a611a87565b5b6000611d5986828701611cdd565b9350506020611d6a86828701611cdd565b9250506040611d7b86828701611c28565b9150509250925092565b600060208284031215611d9b57611d9a611a87565b5b6000611da984828501611cdd565b91505092915050565b611dbb81611c07565b82525050565b6000602082019050611dd66000830184611db2565b92915050565b611de581611b16565b8114611df057600080fd5b50565b600081359050611e0281611ddc565b92915050565b60008060408385031215611e1f57611e1e611a87565b5b6000611e2d85828601611cdd565b9250506020611e3e85828601611df3565b9150509250929050565b600080fd5b600080fd5b7f4e487b7100000000000000000000000000000000000000000000000000000000600052604160045260246000fd5b611e8a82611b9b565b810181811067ffffffffffffffff82111715611ea957611ea8611e52565b5b80604052505050565b6000611ebc611a7d565b9050611ec88282611e81565b919050565b600067ffffffffffffffff821115611ee857611ee7611e52565b5b611ef182611b9b565b9050602081019050919050565b82818337600083830152505050565b6000611f20611f1b84611ecd565b611eb2565b905082815260208101848484011115611f3c57611f3b611e4d565b5b611f47848285611efe565b509392505050565b600082601f830112611f6457611f63611e48565b5b8135611f74848260208601611f0d565b91505092915050565b60008060008060808587031215611f9757611f96611a87565b5b6000611fa587828801611cdd565b9450506020611fb687828801611cdd565b9350506040611fc787828801611c28565b925050606085013567ffffffffffffffff811115611fe857611fe7611a8c565b5b611ff487828801611f4f565b91505092959194509250565b6000806040838503121561201757612016611a87565b5b600061202585828601611cdd565b925050602061203685828601611cdd565b9150509250929050565b7f4e487b7100000000000000000000000000000000000000000000000000000000600052602260045260246000fd5b6000600282049050600182168061208757607f821691505b6020821081141561209b5761209a612040565b5b50919050565b7f4552433732313a20617070726f76656420717565727920666f72206e6f6e657860008201527f697374656e7420746f6b656e0000000000000000000000000000000000000000602082015250565b60006120fd602c83611b57565b9150612108826120a1565b604082019050919050565b6000602082019050818103600083015261212c816120f0565b9050919050565b7f4552433732313a20617070726f76616c20746f2063757272656e74206f776e6560008201527f7200000000000000000000000000000000000000000000000000000000000000602082015250565b600061218f602183611b57565b915061219a82612133565b604082019050919050565b600060208201905081810360008301526121be81612182565b9050919050565b7f4552433732313a20617070726f76652063616c6c6572206973206e6f74206f7760008201527f6e6572206e6f7220617070726f76656420666f7220616c6c0000000000000000602082015250565b6000612221603883611b57565b915061222c826121c5565b604082019050919050565b6000602082019050818103600083015261225081612214565b9050919050565b7f4552433732313a207472616e736665722063616c6c6572206973206e6f74206f60008201527f776e6572206e6f7220617070726f766564000000000000000000000000000000602082015250565b60006122b3603183611b57565b91506122be82612257565b604082019050919050565b600060208201905081810360008301526122e2816122a6565b9050919050565b7f4552433732313a206f776e657220717565727920666f72206e6f6e657869737460008201527f656e7420746f6b656e0000000000000000000000000000000000000000000000602082015250565b6000612345602983611b57565b9150612350826122e9565b604082019050919050565b6000602082019050818103600083015261237481612338565b9050919050565b7f4552433732313a2062616c616e636520717565727920666f7220746865207a6560008201527f726f206164647265737300000000000000000000000000000000000000000000602082015250565b60006123d7602a83611b57565b91506123e28261237b565b604082019050919050565b60006020820190508181036000830152612406816123ca565b9050919050565b7f4e487b7100000000000000000000000000000000000000000000000000000000600052603260045260246000fd5b600081905092915050565b600061245282611b4c565b61245c818561243c565b935061246c818560208601611b68565b80840191505092915050565b60006124848286612447565b91506124908285612447565b915061249c8284612447565b9150819050949350505050565b7f7b226e616d65223a202242616467652023000000000000000000000000000000600082015250565b60006124df60118361243c565b91506124ea826124a9565b601182019050919050565b7f222c20226465736372697074696f6e223a20224120636f6e636973652048617260008201527f64686174207475746f7269616c204261646765204e46542077697468206f6e2d60208201527f636861696e2053564720696d61676573206c696b65206c6f6f6b2e222c000000604082015250565b6000612577605d8361243c565b9150612582826124f5565b605d82019050919050565b7f22696d616765223a2022646174613a696d6167652f7376672b786d6c3b62617360008201527f6536342c00000000000000000000000000000000000000000000000000000000602082015250565b60006125e960248361243c565b91506125f48261258d565b602482019050919050565b7f227d000000000000000000000000000000000000000000000000000000000000600082015250565b600061263560028361243c565b9150612640826125ff565b600282019050919050565b6000612656826124d2565b91506126628285612447565b915061266d8261256a565b9150612678826125dc565b91506126848284612447565b915061268f82612628565b91508190509392505050565b7f646174613a6170706c69636174696f6e2f6a736f6e3b6261736536342c000000600082015250565b60006126d1601d8361243c565b91506126dc8261269b565b601d82019050919050565b60006126f2826126c4565b91506126fe8284612447565b915081905092915050565b7f4552433732313a206f70657261746f7220717565727920666f72206e6f6e657860008201527f697374656e7420746f6b656e0000000000000000000000000000000000000000602082015250565b6000612765602c83611b57565b915061277082612709565b604082019050919050565b6000602082019050818103600083015261279481612758565b9050919050565b7f4552433732313a207472616e736665722066726f6d20696e636f72726563742060008201527f6f776e6572000000000000000000000000000000000000000000000000000000602082015250565b60006127f7602583611b57565b91506128028261279b565b604082019050919050565b60006020820190508181036000830152612826816127ea565b9050919050565b7f4552433732313a207472616e7366657220746f20746865207a65726f2061646460008201527f7265737300000000000000000000000000000000000000000000000000000000602082015250565b6000612889602483611b57565b91506128948261282d565b604082019050919050565b600060208201905081810360008301526128b88161287c565b9050919050565b7f4e487b7100000000000000000000000000000000000000000000000000000000600052601160045260246000fd5b60006128f982611c07565b915061290483611c07565b925082821015612917576129166128bf565b5b828203905092915050565b600061292d82611c07565b915061293883611c07565b9250827fffffffffffffffffffffffffffffffffffffffffffffffffffffffffffffffff0382111561296d5761296c6128bf565b5b828201905092915050565b600060408201905081810360008301526129928185611bac565b90506129a16020830184611db2565b9392505050565b7f4552433732313a206d696e7420746f20746865207a65726f2061646472657373600082015250565b60006129de602083611b57565b91506129e9826129a8565b602082019050919050565b60006020820190508181036000830152612a0d816129d1565b9050919050565b7f4552433732313a20746f6b656e20616c7265616479206d696e74656400000000600082015250565b6000612a4a601c83611b57565b9150612a5582612a14565b602082019050919050565b60006020820190508181036000830152612a7981612a3d565b9050919050565b6000612a8b82611c07565b91507fffffffffffffffffffffffffffffffffffffffffffffffffffffffffffffffff821415612abe57612abd6128bf565b5b600182019050919050565b7f4552433732313a20617070726f766520746f2063616c6c657200000000000000600082015250565b6000612aff601983611b57565b9150612b0a82612ac9565b602082019050919050565b60006020820190508181036000830152612b2e81612af2565b9050919050565b7f4552433732313a207472616e7366657220746f206e6f6e20455243373231526560008201527f63656976657220696d706c656d656e7465720000000000000000000000000000602082015250565b6000612b91603283611b57565b9150612b9c82612b35565b604082019050919050565b60006020820190508181036000830152612bc081612b84565b9050919050565b7f4e487b7100000000000000000000000000000000000000000000000000000000600052601260045260246000fd5b6000612c0182611c07565b9150612c0c83611c07565b925082612c1c57612c1b612bc7565b5b828204905092915050565b6000612c3282611c07565b9150612c3d83611c07565b925082612c4d57612c4c612bc7565b5b828206905092915050565b6000612c6382611c07565b9150612c6e83611c07565b9250817fffffffffffffffffffffffffffffffffffffffffffffffffffffffffffffffff0483118215151615612ca757612ca66128bf565b5b828202905092915050565b600081519050919050565b600082825260208201905092915050565b6000612cd982612cb2565b612ce38185612cbd565b9350612cf3818560208601611b68565b612cfc81611b9b565b840191505092915050565b6000608082019050612d1c6000830187611c9c565b612d296020830186611c9c565b612d366040830185611db2565b8181036060830152612d488184612cce565b905095945050505050565b600081519050612d6281611abd565b92915050565b600060208284031215612d7e57612d7d611a87565b5b6000612d8c84828501612d53565b9150509291505056fe4142434445464748494a4b4c4d4e4f505152535455565758595a6162636465666768696a6b6c6d6e6f707172737475767778797a303132333435363738392b2f3c73766720786d6c6e733d27687474703a2f2f7777772e77332e6f72672f323030302f73766727207072657365727665417370656374526174696f3d27784d696e594d696e206d656574272076696577426f783d273020302033353020333530273e3c7374796c653e2e62617365207b2066696c6c3a2077686974653b20666f6e742d66616d696c793a2073657269663b20666f6e742d73697a653a20323070783b207d3c2f7374796c653e3c726563742077696474683d273130302527206865696768743d2731303025272066696c6c3d27626c61636b27202f3e3c7465787420783d2731302720793d2732302720636c6173733d2762617365273ea26469706673582212201bcdf4cc7727fa13202af4040a291edfb2fb0c816f22a536d7f260a2539b889864736f6c634300080c0033",
  "linkReferences": {},
  "deployedLinkReferences": {}
}