{
  "_format": "hh-sol-artifact-1",
  "contractName": "NFTMarketplace",
  "sourceName": "contracts/NFTMarketplace.sol",
  "abi": [
    {
      "inputs": [],
      "stateMutability": "nonpayable",
      "type": "constructor"
    },
    {
      "anonymous": false,
      "inputs": [
        {
          "indexed": true,
          "internalType": "uint256",
          "name": "id",
          "type": "uint256"
        },
        {
          "indexed": true,
          "internalType": "address",
          "name": "nftContract",
          "type": "address"
        },
        {
          "indexed": true,
          "internalType": "uint256",
          "name": "tokenId",
          "type": "uint256"
        },
        {
          "indexed": false,
          "internalType": "address",
          "name": "seller",
          "type": "address"
        },
        {
          "indexed": false,
          "internalType": "address",
          "name": "buyer",
          "type": "address"
        },
        {
          "indexed": false,
          "internalType": "uint256",
          "name": "price",
          "type": "uint256"
        },
        {
          "indexed": false,
          "internalType": "enum NFTMarketplace.State",
          "name": "state",
          "type": "uint8"
        }
      ],
      "name": "MarketItemCreated",
      "type": "event"
    },
    {
      "inputs": [
        {
          "internalType": "address",
          "name": "nftContract",
          "type": "address"
        },
        {
          "internalType": "uint256",
          "name": "tokenId",
          "type": "uint256"
        },
        {
          "internalType": "uint256",
          "name": "price",
          "type": "uint256"
        }
      ],
      "name": "createMarketItem",
      "outputs": [],
      "stateMutability": "payable",
      "type": "function"
    },
    {
      "inputs": [
        {
          "internalType": "address",
          "name": "nftContract",
          "type": "address"
        },
        {
          "internalType": "uint256",
          "name": "id",
          "type": "uint256"
        }
      ],
      "name": "createMarketSale",
      "outputs": [],
      "stateMutability": "payable",
      "type": "function"
    },
    {
      "inputs": [
        {
          "internalType": "uint256",
          "name": "itemId",
          "type": "uint256"
        }
      ],
      "name": "deleteMarketItem",
      "outputs": [],
      "stateMutability": "nonpayable",
      "type": "function"
    },
    {
      "inputs": [],
      "name": "fetchActiveItems",
      "outputs": [
        {
          "components": [
            {
              "internalType": "uint256",
              "name": "id",
              "type": "uint256"
            },
            {
              "internalType": "address",
              "name": "nftContract",
              "type": "address"
            },
            {
              "internalType": "uint256",
              "name": "tokenId",
              "type": "uint256"
            },
            {
              "internalType": "address payable",
              "name": "seller",
              "type": "address"
            },
            {
              "internalType": "address payable",
              "name": "buyer",
              "type": "address"
            },
            {
              "internalType": "uint256",
              "name": "price",
              "type": "uint256"
            },
            {
              "internalType": "enum NFTMarketplace.State",
              "name": "state",
              "type": "uint8"
            }
          ],
          "internalType": "struct NFTMarketplace.MarketItem[]",
          "name": "",
          "type": "tuple[]"
        }
      ],
      "stateMutability": "view",
      "type": "function"
    },
    {
      "inputs": [],
      "name": "fetchMyCreatedItems",
      "outputs": [
        {
          "components": [
            {
              "internalType": "uint256",
              "name": "id",
              "type": "uint256"
            },
            {
              "internalType": "address",
              "name": "nftContract",
              "type": "address"
            },
            {
              "internalType": "uint256",
              "name": "tokenId",
              "type": "uint256"
            },
            {
              "internalType": "address payable",
              "name": "seller",
              "type": "address"
            },
            {
              "internalType": "address payable",
              "name": "buyer",
              "type": "address"
            },
            {
              "internalType": "uint256",
              "name": "price",
              "type": "uint256"
            },
            {
              "internalType": "enum NFTMarketplace.State",
              "name": "state",
              "type": "uint8"
            }
          ],
          "internalType": "struct NFTMarketplace.MarketItem[]",
          "name": "",
          "type": "tuple[]"
        }
      ],
      "stateMutability": "view",
      "type": "function"
    },
    {
      "inputs": [],
      "name": "fetchMyPurchasedItems",
      "outputs": [
        {
          "components": [
            {
              "internalType": "uint256",
              "name": "id",
              "type": "uint256"
            },
            {
              "internalType": "address",
              "name": "nftContract",
              "type": "address"
            },
            {
              "internalType": "uint256",
              "name": "tokenId",
              "type": "uint256"
            },
            {
              "internalType": "address payable",
              "name": "seller",
              "type": "address"
            },
            {
              "internalType": "address payable",
              "name": "buyer",
              "type": "address"
            },
            {
              "internalType": "uint256",
              "name": "price",
              "type": "uint256"
            },
            {
              "internalType": "enum NFTMarketplace.State",
              "name": "state",
              "type": "uint8"
            }
          ],
          "internalType": "struct NFTMarketplace.MarketItem[]",
          "name": "",
          "type": "tuple[]"
        }
      ],
      "stateMutability": "view",
      "type": "function"
    },
    {
      "inputs": [],
      "name": "getListingFee",
      "outputs": [
        {
          "internalType": "uint256",
          "name": "",
          "type": "uint256"
        }
      ],
      "stateMutability": "view",
      "type": "function"
    },
    {
      "inputs": [],
      "name": "listingFee",
      "outputs": [
        {
          "internalType": "uint256",
          "name": "",
          "type": "uint256"
        }
      ],
      "stateMutability": "view",
      "type": "function"
    },
    {
      "inputs": [],
      "name": "marketowner",
      "outputs": [
        {
          "internalType": "address payable",
          "name": "",
          "type": "address"
        }
      ],
      "stateMutability": "view",
      "type": "function"
    }
  ],
  "bytecode": "0x60806040526658d15e1762800060045534801561001b57600080fd5b50600160008190555033600360006101000a81548173ffffffffffffffffffffffffffffffffffffffff021916908373ffffffffffffffffffffffffffffffffffffffff160217905550612228806100746000396000f3fe6080604052600436106100865760003560e01c8063a9c0714511610059578063a9c0714514610128578063ab76ce1614610151578063b8fe6abe1461017c578063c23b139e146101a7578063ef8da9da146101c357610086565b8063332b386b1461008b57806358eb2df5146100b65780635e385b92146100d25780636a1b7ecc146100fd575b600080fd5b34801561009757600080fd5b506100a06101ee565b6040516100ad9190611a23565b60405180910390f35b6100d060048036038101906100cb9190611aa2565b6101ff565b005b3480156100de57600080fd5b506100e76105fb565b6040516100f49190611b04565b60405180910390f35b34801561010957600080fd5b50610112610621565b60405161011f9190611b2e565b60405180910390f35b34801561013457600080fd5b5061014f600480360381019061014a9190611b49565b610627565b005b34801561015d57600080fd5b50610166610bac565b6040516101739190611a23565b60405180910390f35b34801561018857600080fd5b50610191610bbd565b60405161019e9190611b2e565b60405180910390f35b6101c160048036038101906101bc9190611b76565b610bc7565b005b3480156101cf57600080fd5b506101d8610f59565b6040516101e59190611a23565b60405180910390f35b60606101fa6000610f6a565b905090565b60026000541415610245576040517f08c379a000000000000000000000000000000000000000000000000000000000815260040161023c90611c13565b60405180910390fd5b600260008190555060008111610290576040517f08c379a000000000000000000000000000000000000000000000000000000000815260040161028790611c7f565b60405180910390fd5b60045434146102d4576040517f08c379a00000000000000000000000000000000000000000000000000000000081526004016102cb90611ceb565b60405180910390fd5b6102de60016114e7565b60006102ea60016114fd565b90506040518060e001604052808281526020018573ffffffffffffffffffffffffffffffffffffffff1681526020018481526020013373ffffffffffffffffffffffffffffffffffffffff168152602001600073ffffffffffffffffffffffffffffffffffffffff168152602001838152602001600060028111156103725761037161189b565b5b815250600560008381526020019081526020016000206000820151816000015560208201518160010160006101000a81548173ffffffffffffffffffffffffffffffffffffffff021916908373ffffffffffffffffffffffffffffffffffffffff1602179055506040820151816002015560608201518160030160006101000a81548173ffffffffffffffffffffffffffffffffffffffff021916908373ffffffffffffffffffffffffffffffffffffffff16021790555060808201518160040160006101000a81548173ffffffffffffffffffffffffffffffffffffffff021916908373ffffffffffffffffffffffffffffffffffffffff16021790555060a0820151816005015560c08201518160060160006101000a81548160ff021916908360028111156104a6576104a561189b565b5b02179055509050503073ffffffffffffffffffffffffffffffffffffffff168473ffffffffffffffffffffffffffffffffffffffff1663081812fc856040518263ffffffff1660e01b81526004016104fe9190611b2e565b602060405180830381865afa15801561051b573d6000803e3d6000fd5b505050506040513d601f19601f8201168201806040525081019061053f9190611d20565b73ffffffffffffffffffffffffffffffffffffffff1614610595576040517f08c379a000000000000000000000000000000000000000000000000000000000815260040161058c90611d99565b60405180910390fd5b828473ffffffffffffffffffffffffffffffffffffffff16827fb0a8dcfc08f1150d20def3c46440be585f61cce1bdbb0fdf16bc597f471c6e703360008760006040516105e59493929190611dd7565b60405180910390a4506001600081905550505050565b600360009054906101000a900473ffffffffffffffffffffffffffffffffffffffff1681565b60045481565b6002600054141561066d576040517f08c379a000000000000000000000000000000000000000000000000000000000815260040161066490611c13565b60405180910390fd5b600260008190555061067f60016114fd565b8111156106c1576040517f08c379a00000000000000000000000000000000000000000000000000000000081526004016106b890611e68565b60405180910390fd5b6000600560008381526020019081526020016000206040518060e0016040529081600082015481526020016001820160009054906101000a900473ffffffffffffffffffffffffffffffffffffffff1673ffffffffffffffffffffffffffffffffffffffff1673ffffffffffffffffffffffffffffffffffffffff168152602001600282015481526020016003820160009054906101000a900473ffffffffffffffffffffffffffffffffffffffff1673ffffffffffffffffffffffffffffffffffffffff1673ffffffffffffffffffffffffffffffffffffffff1681526020016004820160009054906101000a900473ffffffffffffffffffffffffffffffffffffffff1673ffffffffffffffffffffffffffffffffffffffff1673ffffffffffffffffffffffffffffffffffffffff168152602001600582015481526020016006820160009054906101000a900460ff1660028111156108265761082561189b565b5b60028111156108385761083761189b565b5b8152505090503373ffffffffffffffffffffffffffffffffffffffff16816020015173ffffffffffffffffffffffffffffffffffffffff16636352211e83604001516040518263ffffffff1660e01b81526004016108969190611b2e565b602060405180830381865afa1580156108b3573d6000803e3d6000fd5b505050506040513d601f19601f820116820180604052508101906108d79190611d20565b73ffffffffffffffffffffffffffffffffffffffff161461092d576040517f08c379a000000000000000000000000000000000000000000000000000000000815260040161092490611ed4565b60405180910390fd5b3073ffffffffffffffffffffffffffffffffffffffff16816020015173ffffffffffffffffffffffffffffffffffffffff1663081812fc83604001516040518263ffffffff1660e01b81526004016109859190611b2e565b602060405180830381865afa1580156109a2573d6000803e3d6000fd5b505050506040513d601f19601f820116820180604052508101906109c69190611d20565b73ffffffffffffffffffffffffffffffffffffffff1614610a1c576040517f08c379a0000000000000000000000000000000000000000000000000000000008152600401610a1390611d99565b60405180910390fd5b6000816020015173ffffffffffffffffffffffffffffffffffffffff1660008360400151604051602401610a51929190611ef4565b6040516020818303038152906040527f095ea7b3000000000000000000000000000000000000000000000000000000007bffffffffffffffffffffffffffffffffffffffffffffffffffffffff19166020820180517bffffffffffffffffffffffffffffffffffffffffffffffffffffffff8381831617835250505050604051610adb9190611f97565b600060405180830381855af49150503d8060008114610b16576040519150601f19603f3d011682016040523d82523d6000602084013e610b1b565b606091505b5050905060026005600085815260200190815260200160002060060160006101000a81548160ff02191690836002811115610b5957610b5861189b565b5b02179055508015610b9f576040517f08c379a0000000000000000000000000000000000000000000000000000000008152600401610b9690611ffa565b60405180910390fd5b5050600160008190555050565b6060610bb86001610f6a565b905090565b6000600454905090565b60026000541415610c0d576040517f08c379a0000000000000000000000000000000000000000000000000000000008152600401610c0490611c13565b60405180910390fd5b60026000819055506000600560008381526020019081526020016000209050600081600501549050600082600201549050813414610c80576040517f08c379a0000000000000000000000000000000000000000000000000000000008152600401610c7790612066565b60405180910390fd5b3073ffffffffffffffffffffffffffffffffffffffff168573ffffffffffffffffffffffffffffffffffffffff1663081812fc836040518263ffffffff1660e01b8152600401610cd09190611b2e565b602060405180830381865afa158015610ced573d6000803e3d6000fd5b505050506040513d601f19601f82011682018060405250810190610d119190611d20565b73ffffffffffffffffffffffffffffffffffffffff1614610d67576040517f08c379a0000000000000000000000000000000000000000000000000000000008152600401610d5e90611d99565b60405180910390fd5b8473ffffffffffffffffffffffffffffffffffffffff166323b872dd8460030160009054906101000a900473ffffffffffffffffffffffffffffffffffffffff1633846040518463ffffffff1660e01b8152600401610dc8939291906120e5565b600060405180830381600087803b158015610de257600080fd5b505af1158015610df6573d6000803e3d6000fd5b50505050600360009054906101000a900473ffffffffffffffffffffffffffffffffffffffff1673ffffffffffffffffffffffffffffffffffffffff166108fc6004549081150290604051600060405180830381858888f19350505050158015610e64573d6000803e3d6000fd5b508260030160009054906101000a900473ffffffffffffffffffffffffffffffffffffffff1673ffffffffffffffffffffffffffffffffffffffff166108fc349081150290604051600060405180830381858888f19350505050158015610ecf573d6000803e3d6000fd5b50338360040160006101000a81548173ffffffffffffffffffffffffffffffffffffffff021916908373ffffffffffffffffffffffffffffffffffffffff16021790555060018360060160006101000a81548160ff02191690836002811115610f3b57610f3a61189b565b5b0217905550610f4a60026114e7565b50505060016000819055505050565b6060610f656002610f6a565b905090565b60606000610f7860016114fd565b9050600080600190505b8281116111325761110b600560008381526020019081526020016000206040518060e0016040529081600082015481526020016001820160009054906101000a900473ffffffffffffffffffffffffffffffffffffffff1673ffffffffffffffffffffffffffffffffffffffff1673ffffffffffffffffffffffffffffffffffffffff168152602001600282015481526020016003820160009054906101000a900473ffffffffffffffffffffffffffffffffffffffff1673ffffffffffffffffffffffffffffffffffffffff1673ffffffffffffffffffffffffffffffffffffffff1681526020016004820160009054906101000a900473ffffffffffffffffffffffffffffffffffffffff1673ffffffffffffffffffffffffffffffffffffffff1673ffffffffffffffffffffffffffffffffffffffff168152602001600582015481526020016006820160009054906101000a900460ff1660028111156110ef576110ee61189b565b5b60028111156111015761110061189b565b5b815250508661150b565b1561111f57818061111b9061214b565b9250505b808061112a9061214b565b915050610f82565b506000808267ffffffffffffffff8111156111505761114f612194565b5b60405190808252806020026020018201604052801561118957816020015b611176611763565b81526020019060019003908161116e5790505b5090506000600190505b8481116114da5761131c600560008381526020019081526020016000206040518060e0016040529081600082015481526020016001820160009054906101000a900473ffffffffffffffffffffffffffffffffffffffff1673ffffffffffffffffffffffffffffffffffffffff1673ffffffffffffffffffffffffffffffffffffffff168152602001600282015481526020016003820160009054906101000a900473ffffffffffffffffffffffffffffffffffffffff1673ffffffffffffffffffffffffffffffffffffffff1673ffffffffffffffffffffffffffffffffffffffff1681526020016004820160009054906101000a900473ffffffffffffffffffffffffffffffffffffffff1673ffffffffffffffffffffffffffffffffffffffff1673ffffffffffffffffffffffffffffffffffffffff168152602001600582015481526020016006820160009054906101000a900460ff166002811115611300576112ff61189b565b5b60028111156113125761131161189b565b5b815250508861150b565b156114c757600560008281526020019081526020016000206040518060e0016040529081600082015481526020016001820160009054906101000a900473ffffffffffffffffffffffffffffffffffffffff1673ffffffffffffffffffffffffffffffffffffffff1673ffffffffffffffffffffffffffffffffffffffff168152602001600282015481526020016003820160009054906101000a900473ffffffffffffffffffffffffffffffffffffffff1673ffffffffffffffffffffffffffffffffffffffff1673ffffffffffffffffffffffffffffffffffffffff1681526020016004820160009054906101000a900473ffffffffffffffffffffffffffffffffffffffff1673ffffffffffffffffffffffffffffffffffffffff1673ffffffffffffffffffffffffffffffffffffffff168152602001600582015481526020016006820160009054906101000a900460ff1660028111156114845761148361189b565b5b60028111156114965761149561189b565b5b815250508284815181106114ad576114ac6121c3565b5b602002602001018190525082806114c39061214b565b9350505b80806114d29061214b565b915050611193565b5080945050505050919050565b6001816000016000828254019250508190555050565b600081600001549050919050565b60006002808111156115205761151f61189b565b5b8260028111156115335761153261189b565b5b1415611581573373ffffffffffffffffffffffffffffffffffffffff16836060015173ffffffffffffffffffffffffffffffffffffffff161461157757600061157a565b60015b905061175d565b600160028111156115955761159461189b565b5b8260028111156115a8576115a761189b565b5b14156115f6573373ffffffffffffffffffffffffffffffffffffffff16836080015173ffffffffffffffffffffffffffffffffffffffff16146115ec5760006115ef565b60015b905061175d565b6000600281111561160a5761160961189b565b5b82600281111561161d5761161c61189b565b5b141561175857600073ffffffffffffffffffffffffffffffffffffffff16836080015173ffffffffffffffffffffffffffffffffffffffff1614801561168b5750600060028111156116725761167161189b565b5b8360c0015160028111156116895761168861189b565b5b145b801561174357503073ffffffffffffffffffffffffffffffffffffffff16836020015173ffffffffffffffffffffffffffffffffffffffff1663081812fc85604001516040518263ffffffff1660e01b81526004016116ea9190611b2e565b602060405180830381865afa158015611707573d6000803e3d6000fd5b505050506040513d601f19601f8201168201806040525081019061172b9190611d20565b73ffffffffffffffffffffffffffffffffffffffff16145b61174e576000611751565b60015b905061175d565b600090505b92915050565b6040518060e0016040528060008152602001600073ffffffffffffffffffffffffffffffffffffffff16815260200160008152602001600073ffffffffffffffffffffffffffffffffffffffff168152602001600073ffffffffffffffffffffffffffffffffffffffff16815260200160008152602001600060028111156117ee576117ed61189b565b5b81525090565b600081519050919050565b600082825260208201905092915050565b6000819050602082019050919050565b6000819050919050565b61183381611820565b82525050565b600073ffffffffffffffffffffffffffffffffffffffff82169050919050565b600061186482611839565b9050919050565b61187481611859565b82525050565b600061188582611839565b9050919050565b6118958161187a565b82525050565b7f4e487b7100000000000000000000000000000000000000000000000000000000600052602160045260246000fd5b600381106118db576118da61189b565b5b50565b60008190506118ec826118ca565b919050565b60006118fc826118de565b9050919050565b61190c816118f1565b82525050565b60e082016000820151611928600085018261182a565b50602082015161193b602085018261186b565b50604082015161194e604085018261182a565b506060820151611961606085018261188c565b506080820151611974608085018261188c565b5060a082015161198760a085018261182a565b5060c082015161199a60c0850182611903565b50505050565b60006119ac8383611912565b60e08301905092915050565b6000602082019050919050565b60006119d0826117f4565b6119da81856117ff565b93506119e583611810565b8060005b83811015611a165781516119fd88826119a0565b9750611a08836119b8565b9250506001810190506119e9565b5085935050505092915050565b60006020820190508181036000830152611a3d81846119c5565b905092915050565b600080fd5b611a5381611859565b8114611a5e57600080fd5b50565b600081359050611a7081611a4a565b92915050565b611a7f81611820565b8114611a8a57600080fd5b50565b600081359050611a9c81611a76565b92915050565b600080600060608486031215611abb57611aba611a45565b5b6000611ac986828701611a61565b9350506020611ada86828701611a8d565b9250506040611aeb86828701611a8d565b9150509250925092565b611afe8161187a565b82525050565b6000602082019050611b196000830184611af5565b92915050565b611b2881611820565b82525050565b6000602082019050611b436000830184611b1f565b92915050565b600060208284031215611b5f57611b5e611a45565b5b6000611b6d84828501611a8d565b91505092915050565b60008060408385031215611b8d57611b8c611a45565b5b6000611b9b85828601611a61565b9250506020611bac85828601611a8d565b9150509250929050565b600082825260208201905092915050565b7f5265656e7472616e637947756172643a207265656e7472616e742063616c6c00600082015250565b6000611bfd601f83611bb6565b9150611c0882611bc7565b602082019050919050565b60006020820190508181036000830152611c2c81611bf0565b9050919050565b7f5072696365206d757374206265206174206c6561737420312077656900000000600082015250565b6000611c69601c83611bb6565b9150611c7482611c33565b602082019050919050565b60006020820190508181036000830152611c9881611c5c565b9050919050565b7f466565206d75737420626520657175616c20746f206c697374696e6720666565600082015250565b6000611cd5602083611bb6565b9150611ce082611c9f565b602082019050919050565b60006020820190508181036000830152611d0481611cc8565b9050919050565b600081519050611d1a81611a4a565b92915050565b600060208284031215611d3657611d35611a45565b5b6000611d4484828501611d0b565b91505092915050565b7f4e4654206d75737420626520617070726f76656420746f206d61726b65740000600082015250565b6000611d83601e83611bb6565b9150611d8e82611d4d565b602082019050919050565b60006020820190508181036000830152611db281611d76565b9050919050565b611dc281611859565b82525050565b611dd1816118f1565b82525050565b6000608082019050611dec6000830187611db9565b611df96020830186611db9565b611e066040830185611b1f565b611e136060830184611dc8565b95945050505050565b7f6964206d757374203c3d206974656d20636f756e740000000000000000000000600082015250565b6000611e52601583611bb6565b9150611e5d82611e1c565b602082019050919050565b60006020820190508181036000830152611e8181611e45565b9050919050565b7f6d75737420626520746865206f776e6572000000000000000000000000000000600082015250565b6000611ebe601183611bb6565b9150611ec982611e88565b602082019050919050565b60006020820190508181036000830152611eed81611eb1565b9050919050565b6000604082019050611f096000830185611db9565b611f166020830184611b1f565b9392505050565b600081519050919050565b600081905092915050565b60005b83811015611f51578082015181840152602081019050611f36565b83811115611f60576000848401525b50505050565b6000611f7182611f1d565b611f7b8185611f28565b9350611f8b818560208601611f33565b80840191505092915050565b6000611fa38284611f66565b915081905092915050565b7f64656c65676174652063616c6c20000000000000000000000000000000000000600082015250565b6000611fe4600e83611bb6565b9150611fef82611fae565b602082019050919050565b6000602082019050818103600083015261201381611fd7565b9050919050565b7f506c65617365207375626d6974207468652061736b696e672070726963650000600082015250565b6000612050601e83611bb6565b915061205b8261201a565b602082019050919050565b6000602082019050818103600083015261207f81612043565b9050919050565b6000819050919050565b60006120ab6120a66120a184611839565b612086565b611839565b9050919050565b60006120bd82612090565b9050919050565b60006120cf826120b2565b9050919050565b6120df816120c4565b82525050565b60006060820190506120fa60008301866120d6565b6121076020830185611db9565b6121146040830184611b1f565b949350505050565b7f4e487b7100000000000000000000000000000000000000000000000000000000600052601160045260246000fd5b600061215682611820565b91507fffffffffffffffffffffffffffffffffffffffffffffffffffffffffffffffff8214156121895761218861211c565b5b600182019050919050565b7f4e487b7100000000000000000000000000000000000000000000000000000000600052604160045260246000fd5b7f4e487b7100000000000000000000000000000000000000000000000000000000600052603260045260246000fdfea264697066735822122028c95cc925e63a7f7a59e4b130c0dfc5ea948e4c3cfed8231d9908b259c6ed5664736f6c634300080c0033",
  "linkReferences": {},
  "deployedLinkReferences": {}
}